{
  "_format": "hh-sol-artifact-1",
  "contractName": "Stacks",
  "sourceName": "contracts/Stacks.sol",
  "abi": [
    {
      "anonymous": false,
      "inputs": [
        {
          "components": [
            {
              "internalType": "uint32",
              "name": "id",
              "type": "uint32"
            },
            {
              "internalType": "string",
              "name": "image",
              "type": "string"
            },
            {
              "internalType": "address",
              "name": "creator_address",
              "type": "address"
            },
            {
              "internalType": "string",
              "name": "comment",
              "type": "string"
            },
            {
              "internalType": "uint256",
              "name": "created_at",
              "type": "uint256"
            }
          ],
          "indexed": false,
          "internalType": "struct Stacks.Stack",
          "name": "stack",
          "type": "tuple"
        }
      ],
      "name": "StackAdded",
      "type": "event"
    },
    {
      "inputs": [
        {
          "internalType": "string",
          "name": "image",
          "type": "string"
        },
        {
          "internalType": "string",
          "name": "comment",
          "type": "string"
        }
      ],
      "name": "addStack",
      "outputs": [],
      "stateMutability": "nonpayable",
      "type": "function"
    },
    {
      "inputs": [],
      "name": "getStacks",
      "outputs": [
        {
          "components": [
            {
              "internalType": "uint32",
              "name": "id",
              "type": "uint32"
            },
            {
              "internalType": "string",
              "name": "image",
              "type": "string"
            },
            {
              "internalType": "address",
              "name": "creator_address",
              "type": "address"
            },
            {
              "internalType": "string",
              "name": "comment",
              "type": "string"
            },
            {
              "internalType": "uint256",
              "name": "created_at",
              "type": "uint256"
            }
          ],
          "internalType": "struct Stacks.Stack[]",
          "name": "",
          "type": "tuple[]"
        }
      ],
      "stateMutability": "view",
      "type": "function"
    }
  ],
  "bytecode": "0x608060405234801561001057600080fd5b50610a9c806100206000396000f3fe608060405234801561001057600080fd5b50600436106100365760003560e01c8063988127ed1461003b578063e8bca8b814610057575b600080fd5b61005560048036038101906100509190610622565b610075565b005b61005f6102ef565b60405161006c9190610880565b60405180910390f35b60006040518060a0016040528060008054906101000a900463ffffffff1663ffffffff16815260200186868080601f016020809104026020016040519081016040528093929190818152602001838380828437600081840152601f19601f8201169050808301925050505050505081526020013373ffffffffffffffffffffffffffffffffffffffff16815260200184848080601f016020809104026020016040519081016040528093929190818152602001838380828437600081840152601f19601f820116905080830192505050505050508152602001428152509050600160003373ffffffffffffffffffffffffffffffffffffffff1673ffffffffffffffffffffffffffffffffffffffff16815260200190815260200160002081908060018154018082558091505060019003906000526020600020906005020160009091909190915060008201518160000160006101000a81548163ffffffff021916908363ffffffff1602179055506020820151816001019080519060200190610200929190610535565b5060408201518160020160006101000a81548173ffffffffffffffffffffffffffffffffffffffff021916908373ffffffffffffffffffffffffffffffffffffffff1602179055506060820151816003019080519060200190610264929190610535565b5060808201518160040155505060008081819054906101000a900463ffffffff1680929190610292906109ca565b91906101000a81548163ffffffff021916908363ffffffff160217905550507f1bc52966cb4376ab7be16d1081532108b19710d492c52278c4510253ccad7a3e816040516102e091906108a2565b60405180910390a15050505050565b6060600160003373ffffffffffffffffffffffffffffffffffffffff1673ffffffffffffffffffffffffffffffffffffffff168152602001908152602001600020805480602002602001604051908101604052809291908181526020016000905b8282101561052c57838290600052602060002090600502016040518060a00160405290816000820160009054906101000a900463ffffffff1663ffffffff1663ffffffff1681526020016001820180546103a990610998565b80601f01602080910402602001604051908101604052809291908181526020018280546103d590610998565b80156104225780601f106103f757610100808354040283529160200191610422565b820191906000526020600020905b81548152906001019060200180831161040557829003601f168201915b505050505081526020016002820160009054906101000a900473ffffffffffffffffffffffffffffffffffffffff1673ffffffffffffffffffffffffffffffffffffffff1673ffffffffffffffffffffffffffffffffffffffff16815260200160038201805461049190610998565b80601f01602080910402602001604051908101604052809291908181526020018280546104bd90610998565b801561050a5780601f106104df5761010080835404028352916020019161050a565b820191906000526020600020905b8154815290600101906020018083116104ed57829003601f168201915b5050505050815260200160048201548152505081526020019060010190610350565b50505050905090565b82805461054190610998565b90600052602060002090601f01602090048101928261056357600085556105aa565b82601f1061057c57805160ff19168380011785556105aa565b828001600101855582156105aa579182015b828111156105a957825182559160200191906001019061058e565b5b5090506105b791906105bb565b5090565b5b808211156105d45760008160009055506001016105bc565b5090565b60008083601f8401126105ea57600080fd5b8235905067ffffffffffffffff81111561060357600080fd5b60208301915083600182028301111561061b57600080fd5b9250929050565b6000806000806040858703121561063857600080fd5b600085013567ffffffffffffffff81111561065257600080fd5b61065e878288016105d8565b9450945050602085013567ffffffffffffffff81111561067d57600080fd5b610689878288016105d8565b925092505092959194509250565b60006106a38383610768565b905092915050565b6106b481610919565b82525050565b60006106c5826108d4565b6106cf81856108f7565b9350836020820285016106e1856108c4565b8060005b8581101561071d57848403895281516106fe8582610697565b9450610709836108ea565b925060208a019950506001810190506106e5565b50829750879550505050505092915050565b600061073a826108df565b6107448185610908565b9350610754818560208601610965565b61075d81610a55565b840191505092915050565b600060a0830160008301516107806000860182610871565b5060208301518482036020860152610798828261072f565b91505060408301516107ad60408601826106ab565b50606083015184820360608601526107c5828261072f565b91505060808301516107da6080860182610862565b508091505092915050565b600060a0830160008301516107fd6000860182610871565b5060208301518482036020860152610815828261072f565b915050604083015161082a60408601826106ab565b5060608301518482036060860152610842828261072f565b91505060808301516108576080860182610862565b508091505092915050565b61086b8161094b565b82525050565b61087a81610955565b82525050565b6000602082019050818103600083015261089a81846106ba565b905092915050565b600060208201905081810360008301526108bc81846107e5565b905092915050565b6000819050602082019050919050565b600081519050919050565b600081519050919050565b6000602082019050919050565b600082825260208201905092915050565b600082825260208201905092915050565b60006109248261092b565b9050919050565b600073ffffffffffffffffffffffffffffffffffffffff82169050919050565b6000819050919050565b600063ffffffff82169050919050565b60005b83811015610983578082015181840152602081019050610968565b83811115610992576000848401525b50505050565b600060028204905060018216806109b057607f821691505b602082108114156109c4576109c3610a26565b5b50919050565b60006109d582610955565b915063ffffffff8214156109ec576109eb6109f7565b5b600182019050919050565b7f4e487b7100000000000000000000000000000000000000000000000000000000600052601160045260246000fd5b7f4e487b7100000000000000000000000000000000000000000000000000000000600052602260045260246000fd5b6000601f19601f830116905091905056fea2646970667358221220e98b4c85c09ab29daabc820b11e04ed1cc054ffc03391d5217121cfaaa37a8e064736f6c63430008040033",
  "linkReferences": {},
  "deployedLinkReferences": {}
}