{
  "_format": "hh-sol-artifact-1",
  "contractName": "Stacks",
  "sourceName": "contracts/Stacks.sol",
  "abi": [
    {
      "inputs": [],
      "stateMutability": "nonpayable",
      "type": "constructor"
    },
    {
      "anonymous": false,
      "inputs": [
        {
          "indexed": true,
          "internalType": "address",
          "name": "owner",
          "type": "address"
        },
        {
          "indexed": true,
          "internalType": "address",
          "name": "approved",
          "type": "address"
        },
        {
          "indexed": true,
          "internalType": "uint256",
          "name": "tokenId",
          "type": "uint256"
        }
      ],
      "name": "Approval",
      "type": "event"
    },
    {
      "anonymous": false,
      "inputs": [
        {
          "indexed": true,
          "internalType": "address",
          "name": "owner",
          "type": "address"
        },
        {
          "indexed": true,
          "internalType": "address",
          "name": "operator",
          "type": "address"
        },
        {
          "indexed": false,
          "internalType": "bool",
          "name": "approved",
          "type": "bool"
        }
      ],
      "name": "ApprovalForAll",
      "type": "event"
    },
    {
      "anonymous": false,
      "inputs": [
        {
          "indexed": true,
          "internalType": "address",
          "name": "previousOwner",
          "type": "address"
        },
        {
          "indexed": true,
          "internalType": "address",
          "name": "newOwner",
          "type": "address"
        }
      ],
      "name": "OwnershipTransferred",
      "type": "event"
    },
    {
      "anonymous": false,
      "inputs": [
        {
          "components": [
            {
              "internalType": "uint32",
              "name": "id",
              "type": "uint32"
            },
            {
              "internalType": "string",
              "name": "image",
              "type": "string"
            },
            {
              "internalType": "address",
              "name": "creator_address",
              "type": "address"
            },
            {
              "internalType": "string",
              "name": "comment",
              "type": "string"
            },
            {
              "internalType": "uint256",
              "name": "created_at",
              "type": "uint256"
            }
          ],
          "indexed": false,
          "internalType": "struct Stacks.Stack",
          "name": "stack",
          "type": "tuple"
        }
      ],
      "name": "StackAdded",
      "type": "event"
    },
    {
      "anonymous": false,
      "inputs": [
        {
          "indexed": true,
          "internalType": "address",
          "name": "from",
          "type": "address"
        },
        {
          "indexed": true,
          "internalType": "address",
          "name": "to",
          "type": "address"
        },
        {
          "indexed": true,
          "internalType": "uint256",
          "name": "tokenId",
          "type": "uint256"
        }
      ],
      "name": "Transfer",
      "type": "event"
    },
    {
      "inputs": [
        {
          "internalType": "string",
          "name": "image",
          "type": "string"
        },
        {
          "internalType": "string",
          "name": "comment",
          "type": "string"
        }
      ],
      "name": "addStack",
      "outputs": [],
      "stateMutability": "nonpayable",
      "type": "function"
    },
    {
      "inputs": [
        {
          "internalType": "address",
          "name": "to",
          "type": "address"
        },
        {
          "internalType": "uint256",
          "name": "tokenId",
          "type": "uint256"
        }
      ],
      "name": "approve",
      "outputs": [],
      "stateMutability": "nonpayable",
      "type": "function"
    },
    {
      "inputs": [
        {
          "internalType": "address",
          "name": "owner",
          "type": "address"
        }
      ],
      "name": "balanceOf",
      "outputs": [
        {
          "internalType": "uint256",
          "name": "",
          "type": "uint256"
        }
      ],
      "stateMutability": "view",
      "type": "function"
    },
    {
      "inputs": [
        {
          "internalType": "uint256",
          "name": "tokenId",
          "type": "uint256"
        }
      ],
      "name": "getApproved",
      "outputs": [
        {
          "internalType": "address",
          "name": "",
          "type": "address"
        }
      ],
      "stateMutability": "view",
      "type": "function"
    },
    {
      "inputs": [],
      "name": "getStacks",
      "outputs": [
        {
          "components": [
            {
              "internalType": "uint32",
              "name": "id",
              "type": "uint32"
            },
            {
              "internalType": "string",
              "name": "image",
              "type": "string"
            },
            {
              "internalType": "address",
              "name": "creator_address",
              "type": "address"
            },
            {
              "internalType": "string",
              "name": "comment",
              "type": "string"
            },
            {
              "internalType": "uint256",
              "name": "created_at",
              "type": "uint256"
            }
          ],
          "internalType": "struct Stacks.Stack[]",
          "name": "",
          "type": "tuple[]"
        }
      ],
      "stateMutability": "view",
      "type": "function"
    },
    {
      "inputs": [
        {
          "internalType": "address",
          "name": "owner",
          "type": "address"
        },
        {
          "internalType": "address",
          "name": "operator",
          "type": "address"
        }
      ],
      "name": "isApprovedForAll",
      "outputs": [
        {
          "internalType": "bool",
          "name": "",
          "type": "bool"
        }
      ],
      "stateMutability": "view",
      "type": "function"
    },
    {
      "inputs": [
        {
          "internalType": "address",
          "name": "recipient",
          "type": "address"
        },
        {
          "internalType": "string",
          "name": "tokenURI",
          "type": "string"
        }
      ],
      "name": "mintNFT",
      "outputs": [
        {
          "internalType": "uint256",
          "name": "",
          "type": "uint256"
        }
      ],
      "stateMutability": "nonpayable",
      "type": "function"
    },
    {
      "inputs": [],
      "name": "name",
      "outputs": [
        {
          "internalType": "string",
          "name": "",
          "type": "string"
        }
      ],
      "stateMutability": "view",
      "type": "function"
    },
    {
      "inputs": [],
      "name": "owner",
      "outputs": [
        {
          "internalType": "address",
          "name": "",
          "type": "address"
        }
      ],
      "stateMutability": "view",
      "type": "function"
    },
    {
      "inputs": [
        {
          "internalType": "uint256",
          "name": "tokenId",
          "type": "uint256"
        }
      ],
      "name": "ownerOf",
      "outputs": [
        {
          "internalType": "address",
          "name": "",
          "type": "address"
        }
      ],
      "stateMutability": "view",
      "type": "function"
    },
    {
      "inputs": [],
      "name": "renounceOwnership",
      "outputs": [],
      "stateMutability": "nonpayable",
      "type": "function"
    },
    {
      "inputs": [
        {
          "internalType": "address",
          "name": "from",
          "type": "address"
        },
        {
          "internalType": "address",
          "name": "to",
          "type": "address"
        },
        {
          "internalType": "uint256",
          "name": "tokenId",
          "type": "uint256"
        }
      ],
      "name": "safeTransferFrom",
      "outputs": [],
      "stateMutability": "nonpayable",
      "type": "function"
    },
    {
      "inputs": [
        {
          "internalType": "address",
          "name": "from",
          "type": "address"
        },
        {
          "internalType": "address",
          "name": "to",
          "type": "address"
        },
        {
          "internalType": "uint256",
          "name": "tokenId",
          "type": "uint256"
        },
        {
          "internalType": "bytes",
          "name": "_data",
          "type": "bytes"
        }
      ],
      "name": "safeTransferFrom",
      "outputs": [],
      "stateMutability": "nonpayable",
      "type": "function"
    },
    {
      "inputs": [
        {
          "internalType": "address",
          "name": "operator",
          "type": "address"
        },
        {
          "internalType": "bool",
          "name": "approved",
          "type": "bool"
        }
      ],
      "name": "setApprovalForAll",
      "outputs": [],
      "stateMutability": "nonpayable",
      "type": "function"
    },
    {
      "inputs": [
        {
          "internalType": "bytes4",
          "name": "interfaceId",
          "type": "bytes4"
        }
      ],
      "name": "supportsInterface",
      "outputs": [
        {
          "internalType": "bool",
          "name": "",
          "type": "bool"
        }
      ],
      "stateMutability": "view",
      "type": "function"
    },
    {
      "inputs": [],
      "name": "symbol",
      "outputs": [
        {
          "internalType": "string",
          "name": "",
          "type": "string"
        }
      ],
      "stateMutability": "view",
      "type": "function"
    },
    {
      "inputs": [
        {
          "internalType": "uint256",
          "name": "tokenId",
          "type": "uint256"
        }
      ],
      "name": "tokenURI",
      "outputs": [
        {
          "internalType": "string",
          "name": "",
          "type": "string"
        }
      ],
      "stateMutability": "view",
      "type": "function"
    },
    {
      "inputs": [
        {
          "internalType": "address",
          "name": "from",
          "type": "address"
        },
        {
          "internalType": "address",
          "name": "to",
          "type": "address"
        },
        {
          "internalType": "uint256",
          "name": "tokenId",
          "type": "uint256"
        }
      ],
      "name": "transferFrom",
      "outputs": [],
      "stateMutability": "nonpayable",
      "type": "function"
    },
    {
      "inputs": [
        {
          "internalType": "address",
          "name": "newOwner",
          "type": "address"
        }
      ],
      "name": "transferOwnership",
      "outputs": [],
      "stateMutability": "nonpayable",
      "type": "function"
    }
  ],
  "bytecode": "0x60806040523480156200001157600080fd5b506040518060400160405280600681526020017f537461636b7300000000000000000000000000000000000000000000000000008152506040518060400160405280600381526020017f53544b0000000000000000000000000000000000000000000000000000000000815250816000908051906020019062000096929190620001a6565b508060019080519060200190620000af929190620001a6565b505050620000d2620000c6620000d860201b60201c565b620000e060201b60201c565b620002bb565b600033905090565b6000600760009054906101000a900473ffffffffffffffffffffffffffffffffffffffff16905081600760006101000a81548173ffffffffffffffffffffffffffffffffffffffff021916908373ffffffffffffffffffffffffffffffffffffffff1602179055508173ffffffffffffffffffffffffffffffffffffffff168173ffffffffffffffffffffffffffffffffffffffff167f8be0079c531659141344cd1fd0a4f28419497f9722a3daafe3b4186f6b6457e060405160405180910390a35050565b828054620001b49062000256565b90600052602060002090601f016020900481019282620001d8576000855562000224565b82601f10620001f357805160ff191683800117855562000224565b8280016001018555821562000224579182015b828111156200022357825182559160200191906001019062000206565b5b50905062000233919062000237565b5090565b5b808211156200025257600081600090555060010162000238565b5090565b600060028204905060018216806200026f57607f821691505b602082108114156200028657620002856200028c565b5b50919050565b7f4e487b7100000000000000000000000000000000000000000000000000000000600052602260045260246000fd5b61386f80620002cb6000396000f3fe608060405234801561001057600080fd5b50600436106101215760003560e01c80638da5cb5b116100ad578063c87b56dd11610071578063c87b56dd146102f2578063e8bca8b814610322578063e985e9c514610340578063eacabe1414610370578063f2fde38b146103a057610121565b80638da5cb5b1461026257806395d89b4114610280578063988127ed1461029e578063a22cb465146102ba578063b88d4fde146102d657610121565b806323b872dd116100f457806323b872dd146101c057806342842e0e146101dc5780636352211e146101f857806370a0823114610228578063715018a61461025857610121565b806301ffc9a71461012657806306fdde0314610156578063081812fc14610174578063095ea7b3146101a4575b600080fd5b610140600480360381019061013b91906124f5565b6103bc565b60405161014d9190612bc1565b60405180910390f35b61015e61049e565b60405161016b9190612bdc565b60405180910390f35b61018e600480360381019061018991906125bc565b610530565b60405161019b9190612b38565b60405180910390f35b6101be60048036038101906101b991906124b9565b6105b5565b005b6101da60048036038101906101d5919061235f565b6106cd565b005b6101f660048036038101906101f1919061235f565b61072d565b005b610212600480360381019061020d91906125bc565b61074d565b60405161021f9190612b38565b60405180910390f35b610242600480360381019061023d91906122fa565b6107ff565b60405161024f9190612e60565b60405180910390f35b6102606108b7565b005b61026a61093f565b6040516102779190612b38565b60405180910390f35b610288610969565b6040516102959190612bdc565b60405180910390f35b6102b860048036038101906102b39190612547565b6109fb565b005b6102d460048036038101906102cf9190612429565b610c78565b005b6102f060048036038101906102eb91906123ae565b610c8e565b005b61030c600480360381019061030791906125bc565b610cf0565b6040516103199190612bdc565b60405180910390f35b61032a610e42565b6040516103379190612b9f565b60405180910390f35b61035a60048036038101906103559190612323565b611088565b6040516103679190612bc1565b60405180910390f35b61038a60048036038101906103859190612465565b61111c565b6040516103979190612e60565b60405180910390f35b6103ba60048036038101906103b591906122fa565b6111d0565b005b60007f80ac58cd000000000000000000000000000000000000000000000000000000007bffffffffffffffffffffffffffffffffffffffffffffffffffffffff1916827bffffffffffffffffffffffffffffffffffffffffffffffffffffffff1916148061048757507f5b5e139f000000000000000000000000000000000000000000000000000000007bffffffffffffffffffffffffffffffffffffffffffffffffffffffff1916827bffffffffffffffffffffffffffffffffffffffffffffffffffffffff1916145b806104975750610496826112c8565b5b9050919050565b6060600080546104ad90613110565b80601f01602080910402602001604051908101604052809291908181526020018280546104d990613110565b80156105265780601f106104fb57610100808354040283529160200191610526565b820191906000526020600020905b81548152906001019060200180831161050957829003601f168201915b5050505050905090565b600061053b82611332565b61057a576040517f08c379a000000000000000000000000000000000000000000000000000000000815260040161057190612d9e565b60405180910390fd5b6004600083815260200190815260200160002060009054906101000a900473ffffffffffffffffffffffffffffffffffffffff169050919050565b60006105c08261074d565b90508073ffffffffffffffffffffffffffffffffffffffff168373ffffffffffffffffffffffffffffffffffffffff161415610631576040517f08c379a000000000000000000000000000000000000000000000000000000000815260040161062890612dfe565b60405180910390fd5b8073ffffffffffffffffffffffffffffffffffffffff1661065061139e565b73ffffffffffffffffffffffffffffffffffffffff16148061067f575061067e8161067961139e565b611088565b5b6106be576040517f08c379a00000000000000000000000000000000000000000000000000000000081526004016106b590612cde565b60405180910390fd5b6106c883836113a6565b505050565b6106de6106d861139e565b8261145f565b61071d576040517f08c379a000000000000000000000000000000000000000000000000000000000815260040161071490612e1e565b60405180910390fd5b61072883838361153d565b505050565b61074883838360405180602001604052806000815250610c8e565b505050565b6000806002600084815260200190815260200160002060009054906101000a900473ffffffffffffffffffffffffffffffffffffffff169050600073ffffffffffffffffffffffffffffffffffffffff168173ffffffffffffffffffffffffffffffffffffffff1614156107f6576040517f08c379a00000000000000000000000000000000000000000000000000000000081526004016107ed90612d1e565b60405180910390fd5b80915050919050565b60008073ffffffffffffffffffffffffffffffffffffffff168273ffffffffffffffffffffffffffffffffffffffff161415610870576040517f08c379a000000000000000000000000000000000000000000000000000000000815260040161086790612cfe565b60405180910390fd5b600360008373ffffffffffffffffffffffffffffffffffffffff1673ffffffffffffffffffffffffffffffffffffffff168152602001908152602001600020549050919050565b6108bf61139e565b73ffffffffffffffffffffffffffffffffffffffff166108dd61093f565b73ffffffffffffffffffffffffffffffffffffffff1614610933576040517f08c379a000000000000000000000000000000000000000000000000000000000815260040161092a90612dbe565b60405180910390fd5b61093d60006117a4565b565b6000600760009054906101000a900473ffffffffffffffffffffffffffffffffffffffff16905090565b60606001805461097890613110565b80601f01602080910402602001604051908101604052809291908181526020018280546109a490613110565b80156109f15780601f106109c6576101008083540402835291602001916109f1565b820191906000526020600020905b8154815290600101906020018083116109d457829003601f168201915b5050505050905090565b60006040518060a00160405280600960009054906101000a900463ffffffff1663ffffffff16815260200186868080601f016020809104026020016040519081016040528093929190818152602001838380828437600081840152601f19601f8201169050808301925050505050505081526020013373ffffffffffffffffffffffffffffffffffffffff16815260200184848080601f016020809104026020016040519081016040528093929190818152602001838380828437600081840152601f19601f820116905080830192505050505050508152602001428152509050600a60003373ffffffffffffffffffffffffffffffffffffffff1673ffffffffffffffffffffffffffffffffffffffff16815260200190815260200160002081908060018154018082558091505060019003906000526020600020906005020160009091909190915060008201518160000160006101000a81548163ffffffff021916908363ffffffff1602179055506020820151816001019080519060200190610b889291906120d4565b5060408201518160020160006101000a81548173ffffffffffffffffffffffffffffffffffffffff021916908373ffffffffffffffffffffffffffffffffffffffff1602179055506060820151816003019080519060200190610bec9291906120d4565b506080820151816004015550506009600081819054906101000a900463ffffffff1680929190610c1b906131bc565b91906101000a81548163ffffffff021916908363ffffffff160217905550507f1bc52966cb4376ab7be16d1081532108b19710d492c52278c4510253ccad7a3e81604051610c699190612e3e565b60405180910390a15050505050565b610c8a610c8361139e565b838361186a565b5050565b610c9f610c9961139e565b8361145f565b610cde576040517f08c379a0000000000000000000000000000000000000000000000000000000008152600401610cd590612e1e565b60405180910390fd5b610cea848484846119d7565b50505050565b6060610cfb82611332565b610d3a576040517f08c379a0000000000000000000000000000000000000000000000000000000008152600401610d3190612d7e565b60405180910390fd5b6000600660008481526020019081526020016000208054610d5a90613110565b80601f0160208091040260200160405190810160405280929190818152602001828054610d8690613110565b8015610dd35780601f10610da857610100808354040283529160200191610dd3565b820191906000526020600020905b815481529060010190602001808311610db657829003601f168201915b505050505090506000610de4611a33565b9050600081511415610dfa578192505050610e3d565b600082511115610e2f578082604051602001610e17929190612b14565b60405160208183030381529060405292505050610e3d565b610e3884611a4a565b925050505b919050565b6060600a60003373ffffffffffffffffffffffffffffffffffffffff1673ffffffffffffffffffffffffffffffffffffffff168152602001908152602001600020805480602002602001604051908101604052809291908181526020016000905b8282101561107f57838290600052602060002090600502016040518060a00160405290816000820160009054906101000a900463ffffffff1663ffffffff1663ffffffff168152602001600182018054610efc90613110565b80601f0160208091040260200160405190810160405280929190818152602001828054610f2890613110565b8015610f755780601f10610f4a57610100808354040283529160200191610f75565b820191906000526020600020905b815481529060010190602001808311610f5857829003601f168201915b505050505081526020016002820160009054906101000a900473ffffffffffffffffffffffffffffffffffffffff1673ffffffffffffffffffffffffffffffffffffffff1673ffffffffffffffffffffffffffffffffffffffff168152602001600382018054610fe490613110565b80601f016020809104026020016040519081016040528092919081815260200182805461101090613110565b801561105d5780601f106110325761010080835404028352916020019161105d565b820191906000526020600020905b81548152906001019060200180831161104057829003601f168201915b5050505050815260200160048201548152505081526020019060010190610ea3565b50505050905090565b6000600560008473ffffffffffffffffffffffffffffffffffffffff1673ffffffffffffffffffffffffffffffffffffffff16815260200190815260200160002060008373ffffffffffffffffffffffffffffffffffffffff1673ffffffffffffffffffffffffffffffffffffffff16815260200190815260200160002060009054906101000a900460ff16905092915050565b600061112661139e565b73ffffffffffffffffffffffffffffffffffffffff1661114461093f565b73ffffffffffffffffffffffffffffffffffffffff161461119a576040517f08c379a000000000000000000000000000000000000000000000000000000000815260040161119190612dbe565b60405180910390fd5b6111a46008611af1565b60006111b06008611b07565b90506111bc8482611b15565b6111c68184611cef565b8091505092915050565b6111d861139e565b73ffffffffffffffffffffffffffffffffffffffff166111f661093f565b73ffffffffffffffffffffffffffffffffffffffff161461124c576040517f08c379a000000000000000000000000000000000000000000000000000000000815260040161124390612dbe565b60405180910390fd5b600073ffffffffffffffffffffffffffffffffffffffff168173ffffffffffffffffffffffffffffffffffffffff1614156112bc576040517f08c379a00000000000000000000000000000000000000000000000000000000081526004016112b390612c1e565b60405180910390fd5b6112c5816117a4565b50565b60007f01ffc9a7000000000000000000000000000000000000000000000000000000007bffffffffffffffffffffffffffffffffffffffffffffffffffffffff1916827bffffffffffffffffffffffffffffffffffffffffffffffffffffffff1916149050919050565b60008073ffffffffffffffffffffffffffffffffffffffff166002600084815260200190815260200160002060009054906101000a900473ffffffffffffffffffffffffffffffffffffffff1673ffffffffffffffffffffffffffffffffffffffff1614159050919050565b600033905090565b816004600083815260200190815260200160002060006101000a81548173ffffffffffffffffffffffffffffffffffffffff021916908373ffffffffffffffffffffffffffffffffffffffff160217905550808273ffffffffffffffffffffffffffffffffffffffff166114198361074d565b73ffffffffffffffffffffffffffffffffffffffff167f8c5be1e5ebec7d5bd14f71427d1e84f3dd0314c0f7b2291e5b200ac8c7c3b92560405160405180910390a45050565b600061146a82611332565b6114a9576040517f08c379a00000000000000000000000000000000000000000000000000000000081526004016114a090612cbe565b60405180910390fd5b60006114b48361074d565b90508073ffffffffffffffffffffffffffffffffffffffff168473ffffffffffffffffffffffffffffffffffffffff1614806114f657506114f58185611088565b5b8061153457508373ffffffffffffffffffffffffffffffffffffffff1661151c84610530565b73ffffffffffffffffffffffffffffffffffffffff16145b91505092915050565b8273ffffffffffffffffffffffffffffffffffffffff1661155d8261074d565b73ffffffffffffffffffffffffffffffffffffffff16146115b3576040517f08c379a00000000000000000000000000000000000000000000000000000000081526004016115aa90612c3e565b60405180910390fd5b600073ffffffffffffffffffffffffffffffffffffffff168273ffffffffffffffffffffffffffffffffffffffff161415611623576040517f08c379a000000000000000000000000000000000000000000000000000000000815260040161161a90612c7e565b60405180910390fd5b61162e838383611d63565b6116396000826113a6565b6001600360008573ffffffffffffffffffffffffffffffffffffffff1673ffffffffffffffffffffffffffffffffffffffff16815260200190815260200160002060008282546116899190613016565b925050819055506001600360008473ffffffffffffffffffffffffffffffffffffffff1673ffffffffffffffffffffffffffffffffffffffff16815260200190815260200160002060008282546116e09190612f8f565b92505081905550816002600083815260200190815260200160002060006101000a81548173ffffffffffffffffffffffffffffffffffffffff021916908373ffffffffffffffffffffffffffffffffffffffff160217905550808273ffffffffffffffffffffffffffffffffffffffff168473ffffffffffffffffffffffffffffffffffffffff167fddf252ad1be2c89b69c2b068fc378daa952ba7f163c4a11628f55a4df523b3ef60405160405180910390a461179f838383611d68565b505050565b6000600760009054906101000a900473ffffffffffffffffffffffffffffffffffffffff16905081600760006101000a81548173ffffffffffffffffffffffffffffffffffffffff021916908373ffffffffffffffffffffffffffffffffffffffff1602179055508173ffffffffffffffffffffffffffffffffffffffff168173ffffffffffffffffffffffffffffffffffffffff167f8be0079c531659141344cd1fd0a4f28419497f9722a3daafe3b4186f6b6457e060405160405180910390a35050565b8173ffffffffffffffffffffffffffffffffffffffff168373ffffffffffffffffffffffffffffffffffffffff1614156118d9576040517f08c379a00000000000000000000000000000000000000000000000000000000081526004016118d090612c9e565b60405180910390fd5b80600560008573ffffffffffffffffffffffffffffffffffffffff1673ffffffffffffffffffffffffffffffffffffffff16815260200190815260200160002060008473ffffffffffffffffffffffffffffffffffffffff1673ffffffffffffffffffffffffffffffffffffffff16815260200190815260200160002060006101000a81548160ff0219169083151502179055508173ffffffffffffffffffffffffffffffffffffffff168373ffffffffffffffffffffffffffffffffffffffff167f17307eab39ab6107e8899845ad3d59bd9653f200f220920489ca2b5937696c31836040516119ca9190612bc1565b60405180910390a3505050565b6119e284848461153d565b6119ee84848484611d6d565b611a2d576040517f08c379a0000000000000000000000000000000000000000000000000000000008152600401611a2490612bfe565b60405180910390fd5b50505050565b606060405180602001604052806000815250905090565b6060611a5582611332565b611a94576040517f08c379a0000000000000000000000000000000000000000000000000000000008152600401611a8b90612dde565b60405180910390fd5b6000611a9e611a33565b90506000815111611abe5760405180602001604052806000815250611ae9565b80611ac884611f04565b604051602001611ad9929190612b14565b6040516020818303038152906040525b915050919050565b6001816000016000828254019250508190555050565b600081600001549050919050565b600073ffffffffffffffffffffffffffffffffffffffff168273ffffffffffffffffffffffffffffffffffffffff161415611b85576040517f08c379a0000000000000000000000000000000000000000000000000000000008152600401611b7c90612d5e565b60405180910390fd5b611b8e81611332565b15611bce576040517f08c379a0000000000000000000000000000000000000000000000000000000008152600401611bc590612c5e565b60405180910390fd5b611bda60008383611d63565b6001600360008473ffffffffffffffffffffffffffffffffffffffff1673ffffffffffffffffffffffffffffffffffffffff1681526020019081526020016000206000828254611c2a9190612f8f565b92505081905550816002600083815260200190815260200160002060006101000a81548173ffffffffffffffffffffffffffffffffffffffff021916908373ffffffffffffffffffffffffffffffffffffffff160217905550808273ffffffffffffffffffffffffffffffffffffffff16600073ffffffffffffffffffffffffffffffffffffffff167fddf252ad1be2c89b69c2b068fc378daa952ba7f163c4a11628f55a4df523b3ef60405160405180910390a4611ceb60008383611d68565b5050565b611cf882611332565b611d37576040517f08c379a0000000000000000000000000000000000000000000000000000000008152600401611d2e90612d3e565b60405180910390fd5b80600660008481526020019081526020016000209080519060200190611d5e9291906120d4565b505050565b505050565b505050565b6000611d8e8473ffffffffffffffffffffffffffffffffffffffff166120b1565b15611ef7578373ffffffffffffffffffffffffffffffffffffffff1663150b7a02611db761139e565b8786866040518563ffffffff1660e01b8152600401611dd99493929190612b53565b602060405180830381600087803b158015611df357600080fd5b505af1925050508015611e2457506040513d601f19601f82011682018060405250810190611e21919061251e565b60015b611ea7573d8060008114611e54576040519150601f19603f3d011682016040523d82523d6000602084013e611e59565b606091505b50600081511415611e9f576040517f08c379a0000000000000000000000000000000000000000000000000000000008152600401611e9690612bfe565b60405180910390fd5b805181602001fd5b63150b7a0260e01b7bffffffffffffffffffffffffffffffffffffffffffffffffffffffff1916817bffffffffffffffffffffffffffffffffffffffffffffffffffffffff191614915050611efc565b600190505b949350505050565b60606000821415611f4c576040518060400160405280600181526020017f300000000000000000000000000000000000000000000000000000000000000081525090506120ac565b600082905060005b60008214611f7e578080611f6790613173565b915050600a82611f779190612fe5565b9150611f54565b60008167ffffffffffffffff811115611fc0577f4e487b7100000000000000000000000000000000000000000000000000000000600052604160045260246000fd5b6040519080825280601f01601f191660200182016040528015611ff25781602001600182028036833780820191505090505b5090505b600085146120a55760018261200b9190613016565b9150600a8561201a91906131e9565b60306120269190612f8f565b60f81b818381518110612062577f4e487b7100000000000000000000000000000000000000000000000000000000600052603260045260246000fd5b60200101907effffffffffffffffffffffffffffffffffffffffffffffffffffffffffffff1916908160001a905350600a8561209e9190612fe5565b9450611ff6565b8093505050505b919050565b6000808273ffffffffffffffffffffffffffffffffffffffff163b119050919050565b8280546120e090613110565b90600052602060002090601f0160209004810192826121025760008555612149565b82601f1061211b57805160ff1916838001178555612149565b82800160010185558215612149579182015b8281111561214857825182559160200191906001019061212d565b5b509050612156919061215a565b5090565b5b8082111561217357600081600090555060010161215b565b5090565b600061218a61218584612ea0565b612e7b565b9050828152602081018484840111156121a257600080fd5b6121ad8482856130ce565b509392505050565b60006121c86121c384612ed1565b612e7b565b9050828152602081018484840111156121e057600080fd5b6121eb8482856130ce565b509392505050565b600081359050612202816137dd565b92915050565b600081359050612217816137f4565b92915050565b60008135905061222c8161380b565b92915050565b6000815190506122418161380b565b92915050565b600082601f83011261225857600080fd5b8135612268848260208601612177565b91505092915050565b60008083601f84011261228357600080fd5b8235905067ffffffffffffffff81111561229c57600080fd5b6020830191508360018202830111156122b457600080fd5b9250929050565b600082601f8301126122cc57600080fd5b81356122dc8482602086016121b5565b91505092915050565b6000813590506122f481613822565b92915050565b60006020828403121561230c57600080fd5b600061231a848285016121f3565b91505092915050565b6000806040838503121561233657600080fd5b6000612344858286016121f3565b9250506020612355858286016121f3565b9150509250929050565b60008060006060848603121561237457600080fd5b6000612382868287016121f3565b9350506020612393868287016121f3565b92505060406123a4868287016122e5565b9150509250925092565b600080600080608085870312156123c457600080fd5b60006123d2878288016121f3565b94505060206123e3878288016121f3565b93505060406123f4878288016122e5565b925050606085013567ffffffffffffffff81111561241157600080fd5b61241d87828801612247565b91505092959194509250565b6000806040838503121561243c57600080fd5b600061244a858286016121f3565b925050602061245b85828601612208565b9150509250929050565b6000806040838503121561247857600080fd5b6000612486858286016121f3565b925050602083013567ffffffffffffffff8111156124a357600080fd5b6124af858286016122bb565b9150509250929050565b600080604083850312156124cc57600080fd5b60006124da858286016121f3565b92505060206124eb858286016122e5565b9150509250929050565b60006020828403121561250757600080fd5b60006125158482850161221d565b91505092915050565b60006020828403121561253057600080fd5b600061253e84828501612232565b91505092915050565b6000806000806040858703121561255d57600080fd5b600085013567ffffffffffffffff81111561257757600080fd5b61258387828801612271565b9450945050602085013567ffffffffffffffff8111156125a257600080fd5b6125ae87828801612271565b925092505092959194509250565b6000602082840312156125ce57600080fd5b60006125dc848285016122e5565b91505092915050565b60006125f183836129ed565b905092915050565b6126028161304a565b82525050565b6126118161304a565b82525050565b600061262282612f12565b61262c8185612f40565b93508360208202850161263e85612f02565b8060005b8581101561267a578484038952815161265b85826125e5565b945061266683612f33565b925060208a01995050600181019050612642565b50829750879550505050505092915050565b6126958161305c565b82525050565b60006126a682612f1d565b6126b08185612f51565b93506126c08185602086016130dd565b6126c9816132d6565b840191505092915050565b60006126df82612f28565b6126e98185612f62565b93506126f98185602086016130dd565b612702816132d6565b840191505092915050565b600061271882612f28565b6127228185612f73565b93506127328185602086016130dd565b61273b816132d6565b840191505092915050565b600061275182612f28565b61275b8185612f84565b935061276b8185602086016130dd565b80840191505092915050565b6000612784603283612f73565b915061278f826132e7565b604082019050919050565b60006127a7602683612f73565b91506127b282613336565b604082019050919050565b60006127ca602583612f73565b91506127d582613385565b604082019050919050565b60006127ed601c83612f73565b91506127f8826133d4565b602082019050919050565b6000612810602483612f73565b915061281b826133fd565b604082019050919050565b6000612833601983612f73565b915061283e8261344c565b602082019050919050565b6000612856602c83612f73565b915061286182613475565b604082019050919050565b6000612879603883612f73565b9150612884826134c4565b604082019050919050565b600061289c602a83612f73565b91506128a782613513565b604082019050919050565b60006128bf602983612f73565b91506128ca82613562565b604082019050919050565b60006128e2602e83612f73565b91506128ed826135b1565b604082019050919050565b6000612905602083612f73565b915061291082613600565b602082019050919050565b6000612928603183612f73565b915061293382613629565b604082019050919050565b600061294b602c83612f73565b915061295682613678565b604082019050919050565b600061296e602083612f73565b9150612979826136c7565b602082019050919050565b6000612991602f83612f73565b915061299c826136f0565b604082019050919050565b60006129b4602183612f73565b91506129bf8261373f565b604082019050919050565b60006129d7603183612f73565b91506129e28261378e565b604082019050919050565b600060a083016000830151612a056000860182612b05565b5060208301518482036020860152612a1d82826126d4565b9150506040830151612a3260408601826125f9565b5060608301518482036060860152612a4a82826126d4565b9150506080830151612a5f6080860182612ae7565b508091505092915050565b600060a083016000830151612a826000860182612b05565b5060208301518482036020860152612a9a82826126d4565b9150506040830151612aaf60408601826125f9565b5060608301518482036060860152612ac782826126d4565b9150506080830151612adc6080860182612ae7565b508091505092915050565b612af0816130b4565b82525050565b612aff816130b4565b82525050565b612b0e816130be565b82525050565b6000612b208285612746565b9150612b2c8284612746565b91508190509392505050565b6000602082019050612b4d6000830184612608565b92915050565b6000608082019050612b686000830187612608565b612b756020830186612608565b612b826040830185612af6565b8181036060830152612b94818461269b565b905095945050505050565b60006020820190508181036000830152612bb98184612617565b905092915050565b6000602082019050612bd6600083018461268c565b92915050565b60006020820190508181036000830152612bf6818461270d565b905092915050565b60006020820190508181036000830152612c1781612777565b9050919050565b60006020820190508181036000830152612c378161279a565b9050919050565b60006020820190508181036000830152612c57816127bd565b9050919050565b60006020820190508181036000830152612c77816127e0565b9050919050565b60006020820190508181036000830152612c9781612803565b9050919050565b60006020820190508181036000830152612cb781612826565b9050919050565b60006020820190508181036000830152612cd781612849565b9050919050565b60006020820190508181036000830152612cf78161286c565b9050919050565b60006020820190508181036000830152612d178161288f565b9050919050565b60006020820190508181036000830152612d37816128b2565b9050919050565b60006020820190508181036000830152612d57816128d5565b9050919050565b60006020820190508181036000830152612d77816128f8565b9050919050565b60006020820190508181036000830152612d978161291b565b9050919050565b60006020820190508181036000830152612db78161293e565b9050919050565b60006020820190508181036000830152612dd781612961565b9050919050565b60006020820190508181036000830152612df781612984565b9050919050565b60006020820190508181036000830152612e17816129a7565b9050919050565b60006020820190508181036000830152612e37816129ca565b9050919050565b60006020820190508181036000830152612e588184612a6a565b905092915050565b6000602082019050612e756000830184612af6565b92915050565b6000612e85612e96565b9050612e918282613142565b919050565b6000604051905090565b600067ffffffffffffffff821115612ebb57612eba6132a7565b5b612ec4826132d6565b9050602081019050919050565b600067ffffffffffffffff821115612eec57612eeb6132a7565b5b612ef5826132d6565b9050602081019050919050565b6000819050602082019050919050565b600081519050919050565b600081519050919050565b600081519050919050565b6000602082019050919050565b600082825260208201905092915050565b600082825260208201905092915050565b600082825260208201905092915050565b600082825260208201905092915050565b600081905092915050565b6000612f9a826130b4565b9150612fa5836130b4565b9250827fffffffffffffffffffffffffffffffffffffffffffffffffffffffffffffffff03821115612fda57612fd961321a565b5b828201905092915050565b6000612ff0826130b4565b9150612ffb836130b4565b92508261300b5761300a613249565b5b828204905092915050565b6000613021826130b4565b915061302c836130b4565b92508282101561303f5761303e61321a565b5b828203905092915050565b600061305582613094565b9050919050565b60008115159050919050565b60007fffffffff0000000000000000000000000000000000000000000000000000000082169050919050565b600073ffffffffffffffffffffffffffffffffffffffff82169050919050565b6000819050919050565b600063ffffffff82169050919050565b82818337600083830152505050565b60005b838110156130fb5780820151818401526020810190506130e0565b8381111561310a576000848401525b50505050565b6000600282049050600182168061312857607f821691505b6020821081141561313c5761313b613278565b5b50919050565b61314b826132d6565b810181811067ffffffffffffffff8211171561316a576131696132a7565b5b80604052505050565b600061317e826130b4565b91507fffffffffffffffffffffffffffffffffffffffffffffffffffffffffffffffff8214156131b1576131b061321a565b5b600182019050919050565b60006131c7826130be565b915063ffffffff8214156131de576131dd61321a565b5b600182019050919050565b60006131f4826130b4565b91506131ff836130b4565b92508261320f5761320e613249565b5b828206905092915050565b7f4e487b7100000000000000000000000000000000000000000000000000000000600052601160045260246000fd5b7f4e487b7100000000000000000000000000000000000000000000000000000000600052601260045260246000fd5b7f4e487b7100000000000000000000000000000000000000000000000000000000600052602260045260246000fd5b7f4e487b7100000000000000000000000000000000000000000000000000000000600052604160045260246000fd5b6000601f19601f8301169050919050565b7f4552433732313a207472616e7366657220746f206e6f6e20455243373231526560008201527f63656976657220696d706c656d656e7465720000000000000000000000000000602082015250565b7f4f776e61626c653a206e6577206f776e657220697320746865207a65726f206160008201527f6464726573730000000000000000000000000000000000000000000000000000602082015250565b7f4552433732313a207472616e736665722066726f6d20696e636f72726563742060008201527f6f776e6572000000000000000000000000000000000000000000000000000000602082015250565b7f4552433732313a20746f6b656e20616c7265616479206d696e74656400000000600082015250565b7f4552433732313a207472616e7366657220746f20746865207a65726f2061646460008201527f7265737300000000000000000000000000000000000000000000000000000000602082015250565b7f4552433732313a20617070726f766520746f2063616c6c657200000000000000600082015250565b7f4552433732313a206f70657261746f7220717565727920666f72206e6f6e657860008201527f697374656e7420746f6b656e0000000000000000000000000000000000000000602082015250565b7f4552433732313a20617070726f76652063616c6c6572206973206e6f74206f7760008201527f6e6572206e6f7220617070726f76656420666f7220616c6c0000000000000000602082015250565b7f4552433732313a2062616c616e636520717565727920666f7220746865207a6560008201527f726f206164647265737300000000000000000000000000000000000000000000602082015250565b7f4552433732313a206f776e657220717565727920666f72206e6f6e657869737460008201527f656e7420746f6b656e0000000000000000000000000000000000000000000000602082015250565b7f45524337323155524953746f726167653a2055524920736574206f66206e6f6e60008201527f6578697374656e7420746f6b656e000000000000000000000000000000000000602082015250565b7f4552433732313a206d696e7420746f20746865207a65726f2061646472657373600082015250565b7f45524337323155524953746f726167653a2055524920717565727920666f722060008201527f6e6f6e6578697374656e7420746f6b656e000000000000000000000000000000602082015250565b7f4552433732313a20617070726f76656420717565727920666f72206e6f6e657860008201527f697374656e7420746f6b656e0000000000000000000000000000000000000000602082015250565b7f4f776e61626c653a2063616c6c6572206973206e6f7420746865206f776e6572600082015250565b7f4552433732314d657461646174613a2055524920717565727920666f72206e6f60008201527f6e6578697374656e7420746f6b656e0000000000000000000000000000000000602082015250565b7f4552433732313a20617070726f76616c20746f2063757272656e74206f776e6560008201527f7200000000000000000000000000000000000000000000000000000000000000602082015250565b7f4552433732313a207472616e736665722063616c6c6572206973206e6f74206f60008201527f776e6572206e6f7220617070726f766564000000000000000000000000000000602082015250565b6137e68161304a565b81146137f157600080fd5b50565b6137fd8161305c565b811461380857600080fd5b50565b61381481613068565b811461381f57600080fd5b50565b61382b816130b4565b811461383657600080fd5b5056fea2646970667358221220698dd84955f669cf9a457e543d6b725387a38f846ebff80823423c7df07510f264736f6c63430008040033",
  "linkReferences": {},
  "deployedLinkReferences": {}
}